:0A0A260000010202030304040505A9
:1002A400E4F52CF52BF52AF529C203C200C202C2DB
:1002B40001120A007E067FB88E0A8F0B751206752E
:1002C40013CA7508067509D47510067511F47514EA
:1002D40007751514EE54E070030203EA752D0075DA
:1002E4002E808E2F8F30C3743E9FFF74079ECF24C1
:1002F40002CF3400FEE48F288E27F526F525F52459
:10030400F523F522F521AF28AE27AD26AC25AB2485
:10031400AA23A922A821C31209EF5026E52E2524D9
:10032400F582E52D3523F58374CDF0E5242401F51C
:1003340024E43523F523E43522F522E43521F5219F
:1003440080C4E4F524F523F522F521AF28AE27ADCA
:1003540026AC25AB24AA23A922A821C31209EF5055
:1003640033E5302524F582E52F3523F583E0FFE5D9
:100374002E2524F582E52D3523F583EFF0E524249D
:1003840001F524E43523F523E43522F522E435216F
:10039400F52180B7852D0A852E0B74B82480FF744F
:1003A4000634FFFEC3E5139FF513E5129EF512C351
:1003B400E50D9FF50DE50C9EF50CC3E50F9FF50FBC
:1003C400E50E9EF50EC3E5099FF509E5089EF508BF
:1003D400C3E5119FF511E5109EF510C3E5159FF5D2
:1003E40015E5149EF514D2E843D82090E668E0445D
:1003F40009F090E65CE0443DF0D2AF90E680E05432
:10040400F7F0538EF8C203300105120080C20130A8
:1004140003291205FE5024C20312098E20001690EF
:10042400E682E030E704E020E1EF90E682E030E6A7
:1004340004E020E0E412087C120A44120A4E80C749
:1000800090E6B9E070030201311470030201AE245E
:10009000FE700302023124FB700302012B14700373
:1000A0000201251460731460762405600302029037
:1000B000120A46400302029C90E6BBE024FE602246
:1000C00014603324FD601114602224067048E50A90
:1000D00090E6B3F0E50B8037E51290E6B3F0E51358
:1000E000802DE50C90E6B3F0E50D8023E50E90E65B
:1000F000B3F0E50F801990E6BAE0FF1208A8AA064F
:10010000A9077B01EA494B600DEE90E6B3F0EF9052
:10011000E6B4F002029C0202951209DD02029C1272
:100120000A3802029C120A3002029C1209CB020217
:100130009C120A48400302029C90E6B8E0247F60CB
:100140001514601924027063A200E43325E0FFA2B5
:1001500002E4334F8041E490E740F0803F90E6BCFA
:10016000E0547EFF7E00E0D394807C0040047D015B
:1001700080027D00EC4EFEED4F2426F582740A3E8F
:10018000F583E493FF3395E0FEEF24A1FFEE34E620
:100190008F82F583E0540190E740F0E4A3F090E60D
:1001A0008AF090E68B7402F002029C020295120A19
:1001B0004A400302029C90E6B8E024FE6016240246
:1001C000600302029C90E6BAE0B40105C20002029C
:1001D0009C02029590E6BAE0705590E6BCE0547E31
:1001E000FF7E00E0D394807C0040047D0180027D8E
:1001F00000EC4EFEED4F2426F582740A3EF583E4B2
:1002000093FF3395E0FEEF24A1FFEE34E68F82F5F5
:1002100083E054FEF090E6BCE05480131313541FA7
:10022000FFE0540F2F90E683F0E04420F0806D80D3
:1002300064120A4C506690E6B8E024FE601924026D
:10024000705A90E6BAE0B40104D200804F90E6BA4A
:10025000E064026047803E90E6BCE0547EFF7E0092
:10026000E0D394807C0040047D0180027D00EC4E50
:10027000FEED4F2426F582740A3EF583E493FF33A6
:1002800095E0FEEF24A1FFEE34E68F82F58380082F
:10029000120444500790E6A0E04401F090E6A0E08C
:0302A0004480F0A7
:0102A3002238
:03003300020A407E
:040A400053D8EF3266
:1006B800120100020000004047050210000001027C
:1006C80000010A06000200000040010009022000A3
:1006D800010100A0320904000002FF000000070524
:1006E800020200020007058602000200090220003B
:1006F800010100A0320904000002FF000000070504
:1007080001024000000705810240000004030904BB
:1007180010034300790070007200650073007300D5
:10072800160345005A002D005500530042002000D2
:080738004600580032000000E9
:0F0A000075A01175B43775B16075B6E0D20022DC
:010A4E002285
:0205FE00D32206
:020A4400D322BB
:020A4600D322B9
:080A300090E6BAE0F517D322AD
:1009CB0090E740E517F0E490E68AF090E68B04F0B0
:0209DB00D32225
:080A380090E6BAE0F516D322A6
:1009DD0090E740E516F0E490E68AF090E68B04F09F
:0209ED00D32213
:020A4800D322B7
:020A4A00D322B5
:020A4C00D322B3
:1004440090E6B9E0245E604824F960272404600340
:1004540002058690E6A0E020E1F97AE779407EE79C
:100464007F4012084EE490E68AF090E68B7403F025
:100474000205861209B3E43390E740F0E490E68A7B
:10048400F090E68B04F090E6A0E04480F00205864C
:1004940090E6BAE0753100F532A3E0FEEE4231A3F6
:1004A400E0F53790E6BEE0753300F534A3E0FEEEE8
:1004B400423390E6B8E064C07064E53445337003B9
:1004C40002058690E6A0E020E1F9C3E5349440E516
:1004D40033940050088533358534368006753500ED
:1004E400753640AB367AE779407EE77540E775416B
:1004F40040AD32AC31AF37120812E490E68AF09086
:10050400E68BE536F02532F532E5353531F531C384
:10051400E5349536F534E5339535F533809C90E62E
:10052400B8E06440705CE5347004E5336401600253
:10053400D322E5344533604AE490E68AF090E68BB2
:10054400F090E6A0E020E1F990E68BE0753500F547
:1005540036FB7AE779407EE77540E7754140AD3276
:10056400AC31AF37120588E5362532F532E535353D
:1005740031F531C3E5349536F534E5339535F53346
:0305840080B0C381
:010587002251
:1005D000C0E0C083C082C085C084C086758600909C
:1005E000E6B5E04401F0D2015391EF90E65D74016D
:0E05F000F0D086D084D085D082D083D0E03287
:1008FA00C0E0C083C082C085C084C08675860053AC
:10090A0091EF90E65D7404F0D086D084D085D082D1
:05091A00D083D0E032A3
:10091F00C0E0C083C082C085C084C0867586005386
:10092F0091EF90E65D7402F0D086D084D085D082AE
:05093F00D083D0E0327E
:10074000C0E0C083C082C085C084C086758600902A
:10075000E680E030E70E85080C85090D85100E85D2
:10076000110F800C85100C85110D85080E85090F61
:100770005391EF90E65D7410F0D086D084D085D090
:0607800082D083D0E032BC
:1008D300C0E0C083C082C085C084C086758600D254
:1008E300035391EF90E65D7408F0D086D084D085F1
:0708F300D082D083D0E03277
:10078600C0E0C083C082C085C084C08675860090E4
:10079600E680E030E70E85080C85090D85100E858C
:1007A600110F800C85100C85110D85080E85090F1B
:1007B6005391EF90E65D7420F0D086D084D085D03A
:0607C60082D083D0E03276
:010A4F003274
:010A50003273
:010A51003272
:010A52003271
:010A53003270
:010A5400326F
:010A5500326E
:010A5600326D
:010A5700326C
:010A5800326B
:010A5900326A
:010A5A003269
:010A5B003268
:010A5C003267
:010A5D003266
:010A5E003265
:010A5F003264
:010A60003263
:010A61003262
:010A62003261
:010A63003260
:010A6400325F
:010A6500325E
:010A6600325D
:010A6700325C
:010A6800325B
:010A6900325A
:010A6A003259
:010A6B003258
:010A6C003257
:010A6D003256
:010A6E003255
:010A6F003254
:010A70003253
:010A71003252
:010A72003251
:10094400E4FDEE25E0FEA2A3E4334206EF30E70324
:10095400D38001C392A2D2A1EF25E0FFC2A10DBDB5
:0409640008E0AF06F2
:01096800226C
:0A0A1B00C2A01209448F42D2A0C30A
:010A250022AE
:10084E00AB07AA06C2A07F9F120944E4FF12094417
:10085E008B828A83EFF0E4FF120944A3EFF0E4FFEA
:0E086E001209448B828A83A3A3EFF0D2A0224A
:060812008C3D8D3EAA079B
:10081800C2A07F03120944AF02120944E53DFF124A
:100828000944AF3E120944E4FCECC39B5014E4FFB6
:10083800120944E5412CF582E43540F583EFF00CCC
:0508480080E7D2A0C30F
:01084D002288
:060588008C3D8D3EAA0728
:10058E007F06120A1B500122C2A07F02120944AF3D
:10059E0002120944E53DFF120944AF3E120944E43C
:1005AE00FCECC39B5012E5412CF582E43540F583FB
:1005BE00E0FF1209440C80E9D2A012096950012211
:0105CE00C369
:0105CF002209
:100969007C05C2A07F05120944AF04120944EFF4C3
:100979006004EF20E0F3AF04120944D2A0EF30E0A5
:0409890002D322C3B0
:01098D002247
:1009B3007F06120A1B5001227F60120A1B5001227C
:0809C300120969500122C32250
:03004300020600B2
:03005300020600A2
:100600000205D00002091F000208FA000208D30008
:100610000207400002078600020A4F00020A50004B
:10062000020A5100020A5200020A5300020A540050
:10063000020A5500020A5600020A5700020A580030
:10064000020A5900020A5000020A5A00020A5B001C
:10065000020A5C00020A5D00020A5E00020A5F00F4
:10066000020A6000020A5000020A5000020A50000A
:10067000020A6100020A6200020A6300020A6400C0
:10068000020A6500020A6600020A6700020A6800A0
:10069000020A6900020A6A00020A6B00020A6C0080
:1006A000020A6D00020A6E00020A6F00020A700060
:0806B000020A7100020A720047
:10087C0090E682E030E004E020E60B90E682E03087
:10088C00E119E030E71590E680E04401F07F147E3A
:0C089C00001207CC90E680E054FEF02231
:0208A800A9079E
:1008AA00AE14AF158F828E83A3E064037017AD0177
:1008BA0019ED7001228F828E83E07C002FFDEC3EC1
:0808CA00FEAF0580DFE4FEFF34
:0108D2002203
:10098E0090E682E044C0F090E681F04387010000DB
:04099E000000002233
:1007CC008E318F3290E600E054187012E53224011D
:1007DC00FFE43531C313F531EF13F532801590E694
:1007EC0000E05418FFBF100BE53225E0F532E5317F
:1007FC0033F531E5321532AE31700215314E6005EC
:06080C001209A280EE2299
:1009A2007400F58690FDA57C05A3E582458370F968
:0109B2002222
:03000000020A0FE2
:0C0A0F00787FE4F6D8FD7581420202A455
:1009EF00EB9FF5F0EA9E42F0E99D42F0E89C45F05E
:0109FF0022D5
:00000001FF
